{
  "contractName": "WorkContract",
  "abi": [
    {
      "anonymous": false,
      "inputs": [
        {
          "indexed": false,
          "internalType": "address",
          "name": "client",
          "type": "address"
        },
        {
          "indexed": false,
          "internalType": "uint256",
          "name": "amount",
          "type": "uint256"
        }
      ],
      "name": "PaymentIsSent",
      "type": "event"
    },
    {
      "anonymous": false,
      "inputs": [
        {
          "indexed": false,
          "internalType": "address",
          "name": "client",
          "type": "address"
        }
      ],
      "name": "PaymentWithdrawn",
      "type": "event"
    },
    {
      "anonymous": false,
      "inputs": [
        {
          "indexed": false,
          "internalType": "uint256",
          "name": "balance",
          "type": "uint256"
        }
      ],
      "name": "balanceAmount",
      "type": "event"
    },
    {
      "constant": false,
      "inputs": [],
      "name": "makePayment",
      "outputs": [],
      "payable": true,
      "stateMutability": "payable",
      "type": "function"
    },
    {
      "constant": false,
      "inputs": [],
      "name": "withdrawBalance",
      "outputs": [],
      "payable": false,
      "stateMutability": "nonpayable",
      "type": "function"
    },
    {
      "constant": false,
      "inputs": [],
      "name": "currentBalance",
      "outputs": [],
      "payable": false,
      "stateMutability": "nonpayable",
      "type": "function"
    }
  ],
  "bytecode": "0x608060405234801561001057600080fd5b506101f8806100206000396000f3fe6080604052600436106100345760003560e01c80635fd8c71014610039578063ce845d1d14610050578063d8d7970014610067575b600080fd5b34801561004557600080fd5b5061004e610071565b005b34801561005c57600080fd5b5061006561011d565b005b61006f610156565b005b3373ffffffffffffffffffffffffffffffffffffffff166108fc479081150290604051600060405180830381858888f193505050501580156100b7573d6000803e3d6000fd5b507f832e43df4de2c3bcddde0796ab3950a40343a9a1f5f39d6b25c0d670877f4e2233604051808273ffffffffffffffffffffffffffffffffffffffff1673ffffffffffffffffffffffffffffffffffffffff16815260200191505060405180910390a1565b7f42124db62510980497e063558fad7bdf6572ed41d111b3e725addb90ff19258b476040518082815260200191505060405180910390a1565b7f5e956946777270931a5d9d895a71deafe24f8bdfc5c8523422d9157ab57dced13334604051808373ffffffffffffffffffffffffffffffffffffffff1673ffffffffffffffffffffffffffffffffffffffff1681526020018281526020019250505060405180910390a156fea265627a7a7231582037dd29d50ff57e90a5f62158dad056a7d4ef714cb12660d677dc8544262c0bd264736f6c63430005100032",
  "source": "// SPDX-License-Identifier: GPL-3.0\npragma solidity >=0.4.22 <0.8.0;\n\ncontract WorkContract {\n  uint projectCost;\n\n  event PaymentIsSent(address client, uint amount);\n  event PaymentWithdrawn(address client);\n  event balanceAmount(uint balance);\n  \n  function makePayment() payable public {\n    emit PaymentIsSent(msg.sender, msg.value);\n  }\n\n  function withdrawBalance() public {\n    msg.sender.transfer(address(this).balance);\n    emit PaymentWithdrawn(msg.sender);\n  }\n\n  function currentBalance() public {\n    emit balanceAmount(address(this).balance);\n  }\n}",
  "sourcePath": "/Users/EBT/myprojects/smart-contract-project/smart-contract/contracts/workContract.sol",
  "compiler": {
    "name": "solc",
    "version": "0.5.16+commit.9c3226ce.Emscripten.clang"
  },
  "schemaVersion": "3.2.3",
  "updatedAt": "2020-08-11T04:07:52.896Z",
  "networkType": "ethereum",
  "devdoc": {
    "methods": {}
  },
  "userdoc": {
    "methods": {}
  }
}