{
  "contractName": "StringContract",
  "abi": [
    {
      "anonymous": false,
      "inputs": [
        {
          "indexed": false,
          "internalType": "string",
          "name": "text",
          "type": "string"
        },
        {
          "indexed": false,
          "internalType": "string",
          "name": "name",
          "type": "string"
        }
      ],
      "name": "NewText",
      "type": "event"
    },
    {
      "constant": true,
      "inputs": [],
      "name": "name",
      "outputs": [
        {
          "internalType": "string",
          "name": "",
          "type": "string"
        }
      ],
      "payable": false,
      "stateMutability": "view",
      "type": "function"
    },
    {
      "constant": true,
      "inputs": [],
      "name": "text",
      "outputs": [
        {
          "internalType": "string",
          "name": "",
          "type": "string"
        }
      ],
      "payable": false,
      "stateMutability": "view",
      "type": "function"
    },
    {
      "constant": false,
      "inputs": [
        {
          "internalType": "string",
          "name": "newText",
          "type": "string"
        },
        {
          "internalType": "string",
          "name": "newName",
          "type": "string"
        }
      ],
      "name": "saveText",
      "outputs": [],
      "payable": false,
      "stateMutability": "nonpayable",
      "type": "function"
    }
  ],
  "bytecode": "0x608060405234801561001057600080fd5b5061060d806100206000396000f3fe608060405234801561001057600080fd5b50600436106100415760003560e01c806306fdde03146100465780631f1bd692146100c957806336f272741461014c575b600080fd5b61004e61029e565b6040518080602001828103825283818151815260200191508051906020019080838360005b8381101561008e578082015181840152602081019050610073565b50505050905090810190601f1680156100bb5780820380516001836020036101000a031916815260200191505b509250505060405180910390f35b6100d161033c565b6040518080602001828103825283818151815260200191508051906020019080838360005b838110156101115780820151818401526020810190506100f6565b50505050905090810190601f16801561013e5780820380516001836020036101000a031916815260200191505b509250505060405180910390f35b61029c6004803603604081101561016257600080fd5b810190808035906020019064010000000081111561017f57600080fd5b82018360208201111561019157600080fd5b803590602001918460018302840111640100000000831117156101b357600080fd5b91908080601f016020809104026020016040519081016040528093929190818152602001838380828437600081840152601f19601f8201169050808301925050505050505091929192908035906020019064010000000081111561021657600080fd5b82018360208201111561022857600080fd5b8035906020019184600183028401116401000000008311171561024a57600080fd5b91908080601f016020809104026020016040519081016040528093929190818152602001838380828437600081840152601f19601f8201169050808301925050505050505091929192905050506103da565b005b60018054600181600116156101000203166002900480601f0160208091040260200160405190810160405280929190818152602001828054600181600116156101000203166002900480156103345780601f1061030957610100808354040283529160200191610334565b820191906000526020600020905b81548152906001019060200180831161031757829003601f168201915b505050505081565b60008054600181600116156101000203166002900480601f0160208091040260200160405190810160405280929190818152602001828054600181600116156101000203166002900480156103d25780601f106103a7576101008083540402835291602001916103d2565b820191906000526020600020905b8154815290600101906020018083116103b557829003601f168201915b505050505081565b81600090805190602001906103f0929190610533565b508060019080519060200190610407929190610533565b507f2a0a3b53eab12fe85bc54e6f46806c2d2fbfb931dccd517bfe4e9e5c50f7724d6000826040518080602001806020018381038352858181546001816001161561010002031660029004815260200191508054600181600116156101000203166002900480156104b95780601f1061048e576101008083540402835291602001916104b9565b820191906000526020600020905b81548152906001019060200180831161049c57829003601f168201915b5050838103825284818151815260200191508051906020019080838360005b838110156104f35780820151818401526020810190506104d8565b50505050905090810190601f1680156105205780820380516001836020036101000a031916815260200191505b5094505050505060405180910390a15050565b828054600181600116156101000203166002900490600052602060002090601f016020900481019282601f1061057457805160ff19168380011785556105a2565b828001600101855582156105a2579182015b828111156105a1578251825591602001919060010190610586565b5b5090506105af91906105b3565b5090565b6105d591905b808211156105d15760008160009055506001016105b9565b5090565b9056fea265627a7a72315820ec514ee07e962558845fd591f67f02884b1a4a5c88d3f0e5efc23396aac4103c64736f6c63430005100032",
  "source": "// SPDX-License-Identifier: GPL-3.0\npragma solidity >=0.4.22 <0.8.0;\n\ncontract StringContract{\n  string public text;\n  string public name;\n\n  event NewText(string text, string name);\n\n  function saveText(string memory newText, string memory newName) public {\n    text = newText;\n    name = newName;\n    emit NewText(text, newName);\n  }\n\n}\n",
  "sourcePath": "/Users/EBT/myprojects/smart-contract-project/smart-contract/src/contracts/stringContract.sol",
  "compiler": {
    "name": "solc",
    "version": "0.5.16+commit.9c3226ce.Emscripten.clang"
  },
  "schemaVersion": "3.2.3",
  "updatedAt": "2020-08-11T16:14:14.937Z",
  "networkType": "ethereum",
  "devdoc": {
    "methods": {}
  },
  "userdoc": {
    "methods": {}
  }
}